:020000040800F2
:1000000000000824DD090008C9080008CB08000822
:10001000CD080008CF080008D10800080000000043
:10002000000000000000000000000000D3080008ED
:10003000D508000800000000D7080008D90800080B
:100040002D0A00082D0A00082D0A00082D0A0008B4
:100050002D0A00082D0A00082D0A00082D0A0008A4
:100060002D0A00082D0A00082D0A0008E1080008E2
:100070002D0A00082D0A0008F10800082D0A0008C2
:100080002D0A00082D0A00082D0A00082D0A000874
:100090002D0A00082D0A00082D0A00082D0A000864
:1000A0002D0A00082D0A00082D0A00082D0A000854
:1000B0002D0A00082D0A00082D0A00082D0A000844
:1000C0002D0A00082D0A00082D0A00080109000861
:1000D0002D0A00082D0A00082D0A00082D0A000824
:1000E0002D0A00082D0A0008000000002D0A000853
:1000F0002D0A00082D0A00082D0A00082D0A000804
:100100002D0A00082D0A00082D0A00082D0A0008F3
:100110002D0A00082D0A00082D0A00082D0A0008E3
:100120002D0A00082D0A00082D0A00082D0A0008D3
:100130002D0A00082D0A00082D0A00082D0A0008C3
:1001400000000000000000000000000000000000AF
:100150002D0A00082D0A00082D0A00082D0A0008A3
:100160002D0A00082D0A00082D0A00082D0A000893
:100170002D0A00082D0A00082D0A000800000000C2
:100180002D0A00082D0A00082D0A00082D0A000873
:100190002D0A00082D0A00082D0A00082D0A000863
:1001A0002D0A00082D0A00082D0A00082D0A000853
:1001B0002D0A00082D0A00082D0A00082D0A000843
:1001C0002D0A00082D0A00082D0A00082D0A000833
:1001D0002D0A00082D0A00082D0A00082D0A000823
:1001E0002D0A00082D0A00082D0A00082D0A000813
:1001F0002D0A00082D0A00082D0A00082D0A000803
:100200002D0A00082D0A00082D0A00082D0A0008F2
:100210002D0A00082D0A00082D0A00082D0A0008E2
:100220002D0A00082D0A00082D0A00080000000011
:100230002D0A00082D0A0008000000002D0A000801
:100240002D0A00082D0A00082D0A00082D0A0008B2
:100250002D0A00082D0A00082D0A00082D0A0008A2
:100260002D0A00082D0A00082D0A00082D0A000892
:100270002D0A00082D0A00082D0A000800000000C1
:100280002D0A00082D0A00082D0A000800000000B1
:08029000000000002D0A000827
:1002980053B94AB9002908BF00281CBF4FF0FF31E5
:1002A8004FF0FF3000F00CB8ADF1080C6DE904CE4A
:1002B80005F074FADDF804E0DDE9022304B07047C4
:1002C800704700BF0348044B834202D0034B03B17D
:1002D8001847704710000024100000240000000098
:1002E800054806490B1AD90F01EBA301491002D0A2
:1002F800034B03B118477047100000241000002476
:100308000000000010B5064C237843B9FFF7DAFF68
:10031800044B13B10448AFF300800123237010BDD0
:100328001000002400000000605B000808B5054BC1
:100338001BB105490548AFF30080BDE80840FFF749
:10034800CFBF00BF0000000014000024605B00085D
:100358002DE9F0438BB00024059406940794089483
:1003680009944E4BD3F8E02042F01002C3F8E02085
:10037800D3F8E02002F010020092009AD3F8E020AF
:1003880042F08002C3F8E020D3F8E02002F08002B7
:100398000192019AD3F8E02042F00102C3F8E0206C
:1003A800D3F8E02002F001020292029AD3F8E0208A
:1003B80042F00402C3F8E020D3F8E02002F004027F
:1003C8000392039AD3F8E02042F00202C3F8E02037
:1003D800D3F8E03003F002030493049BDFF8CC80E9
:1003E80022460221404601F023FF2D4E22464FF4BB
:1003F800A041304601F01CFF2A4F22464FF4A0517D
:10040800384601F015FF0823059306940125079542
:1004180005A9304601F0FCFD0223059306950794D3
:10042800089405A9404601F0F3FD2023059306949E
:10043800079505A91C4801F0EBFD4FF48059CDF84C
:100448001490069507954FF00308CDF8208005A96C
:10045800304601F0DDFD4FF480430593069507957E
:10046800089405A9304601F0D3FD4FF48063059345
:1004780006950794CDF8208005A9384601F0C8FDF7
:10048800CDF8149006950795CDF8208005A9384633
:1004980001F0BEFD0BB0BDE8F08300BF0044025878
:1004A80000100258000402580008025800000258C0
:1004B80000B583B00F4BD3F8D82042F00102C3F83F
:1004C800D820D3F8D83003F001030193019B002210
:1004D80011460B2000F03CFB0B2000F06FFB0022C4
:1004E80003210E2000F034FB0E2000F067FB03B060
:1004F8005DF804FB0044025872B6FEE708B51548DB
:10050800154B03604FF4E133436000238360C360FD
:1005180003610C2242618361C361036243628362A7
:1005280004F04DFE70B900210A4804F0C0FE58B925
:100538000021084804F0E0FE40B9064804F098FE9F
:1005480030B908BDFFF7D8FFFFF7D6FFFFF7D4FF94
:10055800FFF7D2FFA40100240010014008B5164897
:10056800164B03604FF4800343604FF400338360FD
:100578000723C3600023036143614FF080628261F7
:100588004FF08052C261036243628362C3624FF0DC
:10059800804242638363C363036443648364C364C4
:1005A80003654FF000424265836503F04FFD00B9D3
:1005B80008BDFFF7A1FF00BF1C0100240030014067
:1005C80000B59DB04C22002109A805F073FA20223D
:1005D800002101A805F06EFA022001F039FE00237F
:1005E8000093254BDA6A22F00102DA62DB6A03F033
:1005F80001030093214B9A6942F440429A619B6936
:1006080003F440430093009B1C4B9B6913F4005F69
:10061800FAD0012309934FF480330A9302231293EB
:100628001393149340221592169304221792189349
:100638000C23199300231A931B9309A801F032FE87
:10064800B0B93F23019303230293002303930823A4
:1006580004934023059306934FF48062079208930E
:10066800022101A802F072FA20B91DB05DF804FB5E
:10067800FFF742FFFFF740FF000400580048025808
:1006880010B582B000F0F8F9FFF79AFFFFF760FEA7
:10069800FFF70EFFFFF732FFFFF760FF01224FF46D
:1006A80080410D4801F0C4FD04F0A0FF12E00B4B9F
:1006B80033F8243000934FF4F0734FF4A072002104
:1006C800084604F04DFE0134142CF0DD02210448E4
:1006D80001F0B4FD0024F7E700100258B85B0008E9
:1006E8000000025882B0074BD3F8F42042F002020F
:1006F800C3F8F420D3F8F43003F002030193019B0C
:1007080002B070470044025810B5B8B00446002142
:1007180033913491359136913791C02202A805F072
:10072800C9F922682C4B9A4201D038B010BD4FF459
:1007380080520023CDE9022302A802F0A3FC00287E
:1007480044D1264BD3F8F02042F48052C3F8F0206D
:10075800D3F8F02002F480520092009AD3F8E020F7
:1007680042F00102C3F8E020D3F8E03003F00103BF
:100778000193019BA02333930223349301233593E0
:10078800032336930523379333A9154801F040FC1A
:100798001448154B036026234360402383600023DD
:1007A800C360036143618361C3610362436200F014
:1007B8003BFC70B90B4BA3679C63002211462320B6
:1007C80000F0C6F9232000F0F9F9AEE7FFF794FE30
:1007D800B7E7FFF791FEEDE700300140004402580B
:1007E800000002582C0000245800024030B5B9B06F
:1007F8000446002133913491359136913791C022C6
:1008080002A805F057F92268284B9A4201D039B05E
:1008180030BD01220023CDE9022302A802F032FCF8
:1008280000283DD1224BD3F8F02042F01002C3F843
:10083800F020D3F8F02002F010020092009AD3F8CA
:10084800E02042F00202C3F8E020D3F8E03003F0E1
:1008580002030193019B4FF44043339302233493E3
:100868000025359536950423379333A9114801F0AF
:10087800CFFB1148114B0360292343608560C56095
:100888004FF48063036145618561C5610562456216
:1008980000F0CAFB38B9084BC4F880309C63B6E74F
:1008A800FFF72AFEBEE7FFF727FEF4E70010014036
:1008B8000044025800040258A4000024100002401A
:1008C800FEE7FEE7FEE7FEE7FEE770477047704782
:1008D80008B500F0FFF808BD08B5024800F0FAFFB7
:1008E80008BD00BFA400002408B5024800F0F2FFCC
:1008F80008BD00BF2C00002408B5024803F0FEFE26
:1009080008BD00BF1C010024274AD2F8883043F4F0
:100918007003C2F88830254B1B6803F00F03062BC1
:1009280006D8224A136823F00F0343F00703136025
:100938001F4B1A6842F001021A6000221A611968F6
:100948001C4A0A401A60194B1B6813F0080F06D09E
:10095800164A136823F00F0343F007031360144B80
:1009680000229A61DA611A62134999621349D962BD
:10097800134919635A639963DA6319645A641968E5
:1009880021F4802119601A660E4B1A680E4B134029
:10099800B3F1005F03D20D4B0122C3F808210C4BC1
:1009A80043F2D2021A60704700ED00E000200052C6
:1009B800004402587FEDF6EA000202020000FF013F
:1009C800800201010010005C0000FFFF0080005160
:1009D80000400052DFF834D0FFF796FF0C480D496D
:1009E8000D4A002302E0D458C4500433C4188C4282
:1009F800F9D30A4A0A4C002301E013600432A242E8
:100A0800FBD305F033F8FFF73BFE704700000824DE
:100A180000000024100000241C5C000810000024C2
:100A280040020024FEE70000104B1B780BB90120A0
:100A3800704710B504464FF47A70B0FBF3F30C4AD4
:100A48001068B0FBF3F000F0C7F868B90F2C01D9B3
:100A580001200AE0002221464FF0FF3000F078F82C
:100A6800044B1C60002000E0012010BD0800002499
:100A7800000000240C00002410B5032000F056F8F4
:100A880001F06AFF0F498B69C3F303230E4AD35C55
:100A980003F01F03D8408B6903F00F03D35C03F006
:100AA8001F0320FA03F3094A1360094B18600F204B
:100AB800FFF7BAFF10B10124204610BD0446FFF726
:100AC80011FEF9E700440258785B0008040000248E
:100AD80000000024034B1B78034A11680B44136081
:100AE800704700BF0800002438020024014B186832
:100AF800704700BF3802002438B50446FFF7F6FFF8
:100B08000546B4F1FF3F02D0044B1B781C44FFF7A5
:100B1800EDFF401BA042FAD338BD00BF08000024F7
:100B2800014B1868000C70470010005C0649CB6840
:100B380023F4E0631B041B0C000200F4E060034391
:100B4800024A1A43CA60704700ED00E00000FA0547
:100B580000B5174BDB68C3F30223C3F1070CBCF1E4
:100B6800040F28BF4FF0040C03F1040EBEF1060F6A
:100B780014D9033B4FF0FF3E0EFA0CFC21EA0C019E
:100B880099400EFA03F322EA03031943002807DB0E
:100B98000901C9B2074B19545DF804FB0023E9E7C2
:100BA80000F00F000901C9B2034B1954F4E700BF64
:100BB80000ED00E000E400E014ED00E0002807DBB1
:100BC80000F01F02400901239340024A42F82030F6
:100BD800704700BF00E100E00138B0F1807F0BD220
:100BE8004FF0E0235861054AF02182F823100020D5
:100BF800986107221A6170470120704700ED00E0F4
:100C0800F0B4876D0468664E664DAC4218BFB442B6
:100C180042D01835AC423FD01835AC423CD01835DC
:100C2800AC4239D01835AC4236D01835AC4233D046
:100C38001835AC4230D005F55675AC422CD0183575
:100C4800AC4229D01835AC4226D01835AC4223D056
:100C58001835AC4220D01835AC421DD01835AC42FE
:100C68001AD01835AC4217D04F4DAC4214D01435B9
:100C7800AC4211D01435AC420ED01435AC420BD076
:100C88001435AC4208D01435AC4205D01435AC420A
:100C980002D01435AC4207D1446E856E6560C46ECF
:100CA80014B1046F456F656004683D4E3D4DAC421C
:100CB80018BFB44252D01835AC424FD01835AC42A8
:100CC8004CD01835AC4249D01835AC4246D018350E
:100CD800AC4243D01835AC4240D005F55675AC420D
:100CE8003CD01835AC4239D01835AC4236D018351E
:100CF800AC4233D01835AC4230D01835AC422DD088
:100D08001835AC422AD01835AC4227D0264E274D8C
:100D1800AC4218BFB44211D0254DAC420ED01435A8
:100D2800AC420BD01435AC4208D01435AC4205D0D7
:100D38001435AC4202D01435AC4224D1C46D04F051
:100D48001F050124AC407C60046863608368402B05
:100D580020D0036899600368DA6014E0C46D04F079
:100D68001F0C3F2404FA0CF4BC6005682C6824F4BA
:100D780080242C60046863608368402B05D0036876
:100D880099600368DA60F0BC704703689A6003688A
:100D9800D960F8E703689A600368D960F3E700BF91
:100DA8001000024028000240085402581C540258FF
:100DB8003054025803682749274A934218BF8B4288
:100DC8002FD0183293422CD01832934229D018329F
:100DD800934226D01832934223D01832934220D01F
:100DE800183293421DD002F55672934219D0183228
:100DF800934216D01832934213D01832934210D02F
:100E0800183293420DD0183293420AD018329342C6
:100E180007D01832934204D023F0FF038365806D16
:100E2800704710B4D9B210390C4AA2FB0142C2F380
:100E380002120B4CA25CC2655F2907D9094A1A4005
:100E480004328265806D5DF8044B7047054A1A408C
:100E58008265F7E71000024028000240ABAAAAAA60
:100E6800885B000800FCFFFF83699BB9836A012B3C
:100E78000AD0022B02D00BB100207047C36A13F0CE
:100E8800807F2AD100207047C36AB3F1C07F26D083
:100E980000207047B3F5005F0AD0836A022B26D979
:100EA800032B26D1C36A13F0807F24D1002070471A
:100EB800836A032B03D8DFE803F01404140A002024
:100EC8007047C36A13F0807F0DD100207047C36A52
:100ED800B3F1C07F09D0002070470120704701207E
:100EE800704701207047012070470120704701209A
:100EF80070470020704701207047000003682249AE
:100F0800224A934218BF8B4228D01432934225D0EC
:100F18001432934222D0143293421FD01432934297
:100F28001CD01432934219D01432934216D0DAB23C
:100F3800103A1749A1FB0212120916491944A829A7
:100F48001FD9154B13449B000366144B436602F0EC
:100F58001F02012303FA02F282667047DBB2083BE4
:100F68000F4AA2FB03230F4A02EB131292000266F8
:100F78000D4A4266C3F30413012202FA03F383669F
:100F880070470832DDE700BF085402581C54025865
:100F9800ABAAAAAAF0FBFDBF00820010800802409D
:100FA800CDCCCCCC009600168058025801794A1E48
:100FB800072A2CD830B40368154D164CA34218BF25
:100FC800AB4218D01434A34215D01434A34212D023
:100FD8001434A3420FD01434A3420CD01434A342C7
:100FE80009D01434A34206D00B4B0B449B00C366B4
:100FF8000A4B036705E00A4B0B449B00C366094B89
:101008000367012303FA02F2426730BC7047704756
:10101800085402581C5402583F82001040090240EC
:101028003F9600164059025870B50446FFF75EFD1A
:10103800002C00F0B681054623685349534A934271
:1010480018BF8B420CBF0122002250D030318B4296
:101058004DD018318B424AD018318B4247D01831C5
:101068008B4244D018318B4241D018318B423ED04C
:1010780001F556718B423AD018318B4237D018316E
:101088008B4234D018318B4231D018318B422ED05C
:1010980018318B422BD018318B4228D018318B4213
:1010A80025D03B493B4A934218BF8B4200F031811F
:1010B800394A934200F02D811432934200F029817D
:1010C8001432934200F025811432934200F02181BA
:1010D8001432934200F01D811432934200F01981BA
:1010E80040236365032384F8353001204AE0022158
:1010F80084F83510002184F834107ABB274A9342CB
:101108002CD01832934229D01832934226D0183264
:10111800934223D01832934220D0183293421DD0E4
:1011280002F55672934219D01832934216D01832EB
:10113800934213D01832934210D0183293420DD0F4
:10114800183293420AD01832934207D01832934289
:1011580004D01A6822F001021A6003E01A6822F02B
:1011680001021A6023681A6812F0010F18D0FFF7FD
:10117800BDFC431B052BF5D920236365032384F8A5
:101188003530012070BD00BF100002402800024029
:10119800085402581C540258305402584000024067
:1011A8001A6881481040A168E2680A4321690A4325
:1011B80061690A43A1690A43E1690A43216A0A434A
:1011C8000243616A042900F09980784908687849DF
:1011D8000140B1F1005F11D36168A1F12905A1F1C6
:1011E8003F00032888BF052D06D9A1F14700012833
:1011F80002D94F39032901D842F480121A602668AF
:10120800756925F00705636A1D43042B08D1A36A95
:101218001D43E36A23B12046FFF726FE002872D15A
:1012280075612046FFF7C6FDE36D03F01F023F23FB
:101238009340836023685F495F4A934218BF8B429B
:1012480042D0183293423FD0183293423CD01832E1
:10125800934239D01832934236D01832934233D061
:101268001832934230D002F5567293422CD018327D
:10127800934229D01832934226D01832934223D071
:101288001832934220D0183293421DD0183293421C
:101298001AD01832934217D0484A934214D01432C5
:1012A800934211D0143293420ED0143293420BD091
:1012B8001432934208D01432934205D01432934228
:1012C80002D01432934213D12046FFF717FEA368C9
:1012D800802B59D0236E22791A60636EA26E5A60F1
:1012E8006368013B072B52D90023E36623676367D2
:1012F80000206065012384F8353043E7E16A206BFC
:1013080001430A4361E740236365012084F83500FF
:1013180038E7022284F83520002284F834201A683D
:1013280027491140A268402A2CD0802A27D00022C1
:10133800E06842EAD002206942EAD002606942EAE3
:10134800D002A06942EAD002E06942EAD002206AEB
:1013580042EA10120A431A6022681A4B13441A4AC6
:10136800A2FB03231B099B00E3652046FFF722FD30
:10137800E26D02F01F0101228A4042605AE74FF4F1
:101388008042D5E71022D3E700236360A2E7204616
:10139800FFF70CFEE36E00221A60236F626F5A603B
:1013A800A6E70120EEE600BF3F8010FE0010005CBB
:1013B8000000FFFF100002402800024008540258B5
:1013C8000F00FEFFF8ABFDA7CDCCCCCC002800F079
:1013D8003E8170B5044690F83400012800F0398148
:1013E800012084F8340094F83500C0B2012807D0F1
:1013F8004FF400636365002384F83430012070BD26
:10140800022084F83500002060652068924E934DD4
:10141800A84218BFB0422FD01835A8422CD0183592
:10142800A84229D01835A84226D01835A84223D07A
:101438001835A84220D01835A8421DD005F5567594
:10144800A84219D01835A84216D01835A84213D08A
:101458001835A84210D01835A8420DD01835A84222
:101468000AD01835A84207D01835A84204D0056814
:1014780025F00105056003E0056825F00105056014
:101488002046FFF7BDFB23687349744A934218BF8F
:101498008B4238D01832934235D01832934232D02A
:1014A800183293422FD0183293422CD018329342DC
:1014B80029D01832934226D002F55672934222D090
:1014C800183293421FD0183293421CD018329342DC
:1014D80019D01832934216D01832934213D01832CA
:1014E800934210D0183293420DD01A6822F00E029F
:1014F80042F00A021A60236C93B12268136843F021
:10150800040313600CE01A6822F01E0242F016026F
:101518001A60236C23B12268136843F00803136030
:1015280023684D494D4A934218BF8B4242D0183226
:1015380093423FD0183293423CD01832934239D06C
:101548001832934236D01832934233D0183293422D
:1015580030D002F5567293422CD01832934229D0DB
:101568001832934226D01832934223D0183293422D
:1015780020D0183293421DD0183293421AD0183214
:10158800934217D0364A934214D01432934211D062
:10159800143293420ED0143293420BD01432934239
:1015A80008D01432934205D01432934202D0143238
:1015B80093420ED1236E1A6812F4803F03D01A6842
:1015C80042F480721A60E36E1BB11A6842F48072AA
:1015D8001A6023682049214A934218BF8B4230D0B1
:1015E800183293422DD0183293422AD0183293429F
:1015F80027D01832934224D01832934221D018327F
:1016080093421ED002F5567293421AD01832934272
:1016180017D01832934214D01832934211D018328E
:1016280093420ED0183293420BD01832934208D00E
:101638001832934205D01A6842F001021A6000205D
:10164800DDE61A6842F001021A600020D7E60120A0
:1016580070470220D3E600BF100002402800024075
:1016680008540258002800F0298108B5024690F86D
:101678003530DBB2022B03D080234365012008BD3F
:101688000368904890498B4218BF83420CBF0121E0
:10169800002166D03030834263D01830834260D056
:1016A800183083425DD0183083425AD018308342B4
:1016B80057D01830834254D000F55670834250D02A
:1016C800183083424DD0183083424AD018308342B4
:1016D80047D01830834244D01830834241D0183064
:1016E80083423ED0183083423BD0196821F00E0166
:1016F80019601368A0F5956073498B4218BF83423F
:101708006AD072498B4267D018318B4264D0183145
:101718008B4261D018318B425ED018318B425BD03E
:1017280018318B4258D001F556718B4254D018317C
:101738008B4251D018318B424ED018318B424BD04E
:1017480018318B4248D018318B4245D018318B4222
:1017580042D018318B423FD0196821F0010119603D
:101768003EE0042082F8350081BB584A93422DD0D0
:10177800183293422AD01832934227D01832934213
:1017880024D01832934221D0183293421ED002F549
:10179800567293421AD01832934217D01832934295
:1017A80014D01832934211D0183293420ED0183206
:1017B80093420BD01832934208D01832934205D086
:1017C8001A6822F001021A60002058E71A6822F00D
:1017D80001021A60002052E7196821F0010119601E
:1017E8001368384838498B4218BF834242D01831B1
:1017F8008B423FD018318B423CD018318B4239D0C4
:1018080018318B4236D018318B4233D018318B4285
:1018180030D001F556718B422CD018318B4229D02B
:1018280018318B4226D018318B4223D018318B4285
:1018380020D018318B421DD018318B421AD0183164
:101848008B4217D022498B4214D014318B4211D0CD
:1018580014318B420ED014318B420BD014318B4291
:1018680008D014318B4205D014318B4202D0143188
:101878008B4217D1116E0B6823F480730B60906D47
:10188800D36D03F01F0101238B404360536E916EAB
:101898005960D36E33B1196821F480711960136FE0
:1018A800516F5960012382F83530002382F83430B3
:1018B800136D2BB1104698470020E0E601207047D1
:1018C8000020DCE6100002402800024040000240F0
:1018D80008540258F0B583B00446002301937D4BA9
:1018E8001D687D4BA3FB0535AD0A876D3E68D7F8AB
:1018F80000C0036879497A48834218BF8B420CBFFD
:101908000120002061D0774A93425ED0183293427A
:101918005BD01832934258D01832934255D01832BF
:10192800934252D0183293424FD002F556729342E6
:101938004BD01832934248D01832934245D01832CF
:10194800934242D0183293423FD0183293423CD04F
:101958001832934239D01832934236D06249634ADA
:10196800934218BF8B4212D0614A93420FD014326F
:1019780093420CD01432934209D01432934206D0C9
:101988001432934203D01432934240F061821A68B1
:10199800E16D01F01F010420884010EA0C0F00F0EF
:1019A800A78212F0040F00F0A382786012F4004FAF
:1019B80000F05A8212F4803F40F05082A36C002B52
:1019C80000F046822046984742E2E26D02F01F018D
:1019D80008228A40324241D070BB424A93422BD0FF
:1019E8001832934228D01832934225D018329342A5
:1019F80022D0183293421FD0183293421CD002F5DD
:101A08005672934218D01832934215D01832934226
:101A180012D0183293420FD0183293420CD0183299
:101A2800934209D01832934206D01832934203D019
:101A38001A68C2F3C00202E01A68C2F380026AB1EF
:101A48001A6822F004021A60E36D03F01F020823EB
:101A58009340BB60636D43F001036365E26D02F080
:101A68001F0226FA02F313F0010F47D023681B4820
:101A78001B498B4218BF83423CD018318B4239D066
:101A880018318B4236D018318B4233D018318B4203
:101A980030D018318B422DD018318B422AD001F525
:101AA80056718B4226D018318B4223D018318B4285
:101AB80020D018318B421DD018318B421AD01831E2
:101AC8008B4217D018318B4214D018318B4211D069
:101AD8001B6813E000000024B5814E1B1000024073
:101AE8002800024040000240085402581C54025882
:101AF800305402585B6913F0800F3BD1E36D03F05B
:101B08001F03042202FA03F3334240D022689648A6
:101B180096498A4218BF824235D018318A4232D05B
:101B280018318A422FD018318A422CD018318A4273
:101B380029D018318A4226D018318A4223D001F59B
:101B480056718A421FD018318A421CD018318A42F5
:101B580019D018318A4216D018318A4213D0183158
:101B68008A4210D018318A420DD018318A420AD0E0
:101B780013680CE0012303FA02F2BA60636D43F0C4
:101B880002036365BAE7126812F0020F3DD1E36DF4
:101B980003F01F03102202FA03F333425FD02268D6
:101BA800714872498A4218BF824234D018318A4239
:101BB80031D018318A422ED018318A422BD01831B0
:101BC8008A4228D018318A4225D018318A4222D038
:101BD80001F556718A421ED018318A421BD018313D
:101BE8008A4218D018318A4215D018318A4212D048
:101BF80018318A420FD018318A420CD018318A42E3
:101C080009D01268C2F3800208E0BB60636D43F03C
:101C180004036365BBE71268C2F3C002FAB1BB6094
:101C280023681A6812F4802F0DD01B6813F4002F54
:101C380004D1236C9BB12046984710E0A36C73B184
:101C4800204698470BE01A6812F4807F03D11A687F
:101C580022F008021A60236C0BB120469847E36D06
:101C680003F01F03202202FA03F3334200F09280AC
:101C780022683D483D498A4218BF82422ED0183119
:101C88008A422BD018318A4228D018318A4225D06E
:101C980018318A4222D018318A421FD018318A421C
:101CA8001CD001F556718A4218D018318A4215D0D5
:101CB80018318A4212D018318A420FD018318A421C
:101CC8000CD018318A4209D018318A4206D018310E
:101CD8008A4203D01268C2F3400202E01268C2F3DB
:101CE8000012002A56D0BB6094F83530DBB2042BC2
:101CF8000ED023681A6812F4802F39D01B6813F4A9
:101D0800002F2CD1636C002B44D02046984741E02B
:101D18002268136823F0160313602268536923F0BE
:101D280080035361236CB3B12268136823F008035E
:101D38001360E36D03F01F023F239340BB60012350
:101D480084F83530002384F83430236D002B7FD09D
:101D5800204698477CE0A36C002BE5D1E9E7E36BCC
:101D6800C3B12046984715E0100002402800024001
:101D78001A6812F4807F09D11A6822F010021A60DA
:101D8800012384F83530002384F83430E36B0BB139
:101D980020469847636D002B5AD0636D13F0010FEE
:101DA80052D0042384F8353023689649964A9342E2
:101DB80018BF8B422FD0183293422CD0183293423E
:101DC80029D01832934226D01832934223D01832A1
:101DD800934220D0183293421DD002F55672934296
:101DE80019D01832934216D01832934213D01832B1
:101DF800934210D0183293420DD0183293420AD031
:101E08001832934207D01832934204D01A6822F04D
:101E180001021A6003E01A6822F001021A60019BAD
:101E280001330193AB4204D823681B6813F0010FF8
:101E3800F5D123681B6813F0010F0BD0032384F836
:101E48003530002384F83430E36C0BB120469847D2
:101E580003B0F0BD012384F83530F2E7236C002B82
:101E6800F6D020469847F3E712F0200F3AD12368BE
:101E78006449654A934218BF8B422FD01832934267
:101E88002CD01832934229D01832934226D01832D7
:101E9800934223D01832934220D0183293421DD057
:101EA80002F55672934219D01832934216D018325E
:101EB800934213D01832934210D0183293420DD067
:101EC800183293420AD01832934207D018329342FC
:101ED80004D01A6822F004021A6003E01A6822F09B
:101EE80008021A60236C002BB2D020469847AFE74F
:101EF8000220884010EA0C0F60D012F0020F5DD06B
:101F0800786012F4004F0ED012F4803F05D1636C54
:101F1800002B9DD0204698479AE7E36B002B97D07B
:101F28002046984794E712F0200F40D1236835499E
:101F3800354A934218BF8B422FD0183293422CD087
:101F48001832934229D01832934226D0183293423D
:101F580023D01832934220D0183293421DD002F574
:101F68005672934219D01832934216D018329342BF
:101F780013D01832934210D0183293420DD0183231
:101F880093420AD01832934207D01832934204D0B1
:101F98001A6822F00A021A6003E01A6822F0140292
:101FA8001A60012384F83530002384F83430E36B59
:101FB800002B3FF44DAF2046984749E7082000FA28
:101FC80001F111EA0C0F3FF443AF12F0080F3FF490
:101FD8003FAF1A6822F00E021A60E36D03F01F0388
:101FE800012202FA03F37B60626584F8352000233E
:101FF80084F83430E36C002B3FF42AAF204698472E
:1020080026E700BF1000024028000240406D7047DC
:10201800F0B583B000236BE085685E000324B4400C
:1020280025EA0405CC68B4402C438460446824EA5B
:102038000C0C4C68C4F300149C4044EA0C04446043
:1020480068E0DD08083550F8256003F007044FEA1A
:10205800840C0F2404FA0CF426EA040E0C6904FA22
:102068000CF444EA0E0440F825406BE0092400E033
:10207800002404FA0EF42C430CF1020C694D45F8C7
:102088002C404FF0B0442568D44325EA02064F6837
:1020980017F4801F01D042EA05064FF0B0452E60C4
:1020A8006D6804EA05064F6817F4001F01D042EA7C
:1020B80005064FF0B0456E60D5F8845004EA050671
:1020C8004F6817F4003F01D042EA05064FF0B045CB
:1020D800C5F88460D5F880502C404E6816F4803FCF
:1020E80001D042EA05044FF0B042C2F88040013303
:1020F8000A6832FA03F400F092804FF0010C0CFAEF
:1021080003FC1CEA0202F2D04C6804F00304013C10
:10211800012C81D94C6804F00304032C0CD0C4684A
:102128005D004FF0030C0CFA05FC24EA0C0C8C68DB
:10213800AC4044EA0C04C4604C6804F00304022C6C
:102148003FF47FAF04684FEA430E4FF0030C0CFADC
:102158000EFC24EA0C0C4C6804F0030404FA0EF498
:1021680044EA0C0404604C6814F4403FBFD02E4C81
:10217800D4F8F45045F00205C4F8F450D4F8F4400B
:1021880004F002040194019C4FEA930C0CF102053F
:10219800244C54F8255003F003044FEA840E0F240E
:1021A80004FA0EF425EA0405204CA0423FF460AF7F
:1021B80004F58064A04222D004F58064A04220D0B7
:1021C80004F58064A0421ED004F58064A0421CD0AF
:1021D80004F58064A0421AD004F58064A04218D0A7
:1021E80004F58064A04216D004F58064A04214D09F
:1021F80004F58064A0423FF439AF0A2439E701248A
:1022080037E7022435E7032433E7042431E70524BC
:102218002FE706242DE707242BE7082429E703B036
:10222800F0BD00BF000400580044025800000258E6
:102238000AB181617047090481617047436901EA05
:10224800030221EA030141EA02418161704700006B
:10225800134BDB6813F0040F07D1114BDB6803F055
:10226800070383421AD00120704710B50C4AD3687F
:1022780023F007031843D060FEF738FC0446084BE8
:102288005B6813F4005F07D1FEF730FC001BB0F564
:102298007A7FF4D9012000E0002010BD00207047AB
:1022A80000480258002800F0398338B5044603680E
:1022B80013F0010F25D0944A136903F03803926A8A
:1022C800102B15D0182B0FD06368B3F5803F3FD083
:1022D800002B53D18C4B1A6822F480321A601A688A
:1022E80022F480221A6038E002F00302022AEBD1BD
:1022F800854B1B6813F4003F03D06368002B00F084
:102308000F83236813F0020F00F0A1807E4A13693F
:10231800926A13F038035AD0182B55D0E368002B73
:1023280000F0DE8078490A6822F0190213430B6036
:10233800FEF7DCFB0546744B1B6813F0040F40F0F6
:10234800AD80FEF7D3FB401B0228F4D90320EEE250
:102358006D4A136843F48033136063682BB3FEF748
:10236800C5FB0546684B1B6813F4003FC9D1FEF74F
:10237800BDFB401B6428F5D90320D8E2B3F5A02F94
:1023880009D0614B1A6822F480321A601A6822F464
:1023980080221A60E1E75C4B1A6842F480221A60D6
:1023A8001A6842F480321A60D7E7FEF79FFB0546A9
:1023B800554B1B6813F4003FA3D0FEF797FB401B57
:1023C8006428F5D90320B2E212F0030FA6D14E4BD0
:1023D8001B6813F0040F03D0E368002B00F0A282FF
:1023E800494A136823F01903E1680B431360FEF7A9
:1023F8007DFB0546444B1B6813F0040F06D1FEF71E
:1024080075FB401B0228F5D9032090E2FEF788FBF4
:1024180041F20303984212D82269402A07D03A4968
:102428004B6823F47C3343EA02334B600FE0364AAF
:10243800536823F47C3343F40033536007E0324A93
:10244800536823F0FE43216943EA0163536023681C
:1024580013F0100F00F088802B4A136903F038033B
:10246800926A082B56D0182B50D0E369002B00F045
:10247800B880254A136843F080031360FEF736FBE3
:102488000546214B1B6813F4807F40F08880FEF7D7
:102498002DFB401B0228F4D9032048E2FEF740FB3D
:1024A80041F20303984212D82269402A07D01649FC
:1024B8004B6823F47C3343EA02334B60C7E7124A84
:1024C800536823F47C3343F400335360BFE70E4A68
:1024D800536823F0FE43216943EA01635360B6E77A
:1024E800094A136823F001031360FEF7FFFA054653
:1024F800054B1B6813F0040FA9D0FEF7F7FA401B31
:102508000228F5D9032012E20044025802F003021F
:10251800012AAAD1A14B1B6813F4807F03D0E36979
:10252800802B40F00182FEF7FBFA41F20303984248
:1025380012D8226A202A07D098494B6823F0F8431A
:1025480043EA82634B600FE0944A536823F0F843F0
:1025580043F08043536007E0904AD36823F07C53EC
:10256800216A43EA0163D360236813F0080F60D03F
:102578006369002B49D0894A536F43F001035367BD
:10258800FEF7B4FA0546854B5B6F13F0020F50D186
:10259800FEF7ACFA401B0228F5D90320C7E1FEF785
:1025A800BFFA41F20303984212D8226A202A07D0C0
:1025B8007A494B6823F0F84343EA82634B60D3E7D8
:1025C800764A536823F0F84343F080435360CBE7DF
:1025D800724AD36823F07C53216A43EA0163D360CB
:1025E800C2E76E4A136823F080031360FEF77EFA91
:1025F80005466A4B1B6813F4807FB5D0FEF776FA60
:10260800401B0228F5D9032091E1644A536F23F057
:1026180001035367FEF76AFA0546604B5B6F13F0D8
:10262800020F06D0FEF762FA401B0228F5D90320F4
:102638007DE1236813F0200F29D0A3699BB1574A85
:10264800136843F480531360FEF750FA0546534B62
:102658001B6813F4005F1AD1FEF748FA401B0228E2
:10266800F5D9032063E14D4A136823F480531360BE
:10267800FEF73CFA0546494B1B6813F4005F06D089
:10268800FEF734FA401B0228F5D903204FE12368EE
:1026980013F0040F21D1636A002B00F047813F4AF1
:1026A800126902F03802182A00F0EE80022B79D065
:1026B8003A4A136823F080731360FEF717FA04464A
:1026C800364B1B6813F0007F00F0DC80FEF70EFA33
:1026D800001B0228F4D9032029E1314A136843F486
:1026E80080731360FEF702FA05462D4B1B6813F43E
:1026F800807F06D1FEF7FAF9401B6428F5D903203C
:1027080015E1A368012B0AD00BBB244B1A6F22F0EA
:1027180001021A671A6F22F004021A6704E01F4ABE
:10272800136F43F001031367A36833B3FEF7DEF9B1
:1027380005461A4B1B6F13F0020FACD1FEF7D6F902
:10274800401B41F288339842F3D90320EFE0052B70
:1027580009D0124B1A6F22F001021A671A6F22F081
:1027680004021A67E0E70D4B1A6F42F004021A6779
:102778001A6F42F001021A67D6E7FEF7B7F9054665
:10278800064B1B6F13F0020F85D0FEF7AFF9401B05
:1027980041F288339842F3D90320C8E00044025834
:1027A80000480258694A136823F080731360FEF7E3
:1027B8009DF90546654B1B6813F0007F06D0FEF7B0
:1027C80095F9401B0228F5D90320B0E05F4B996AC0
:1027D8005F4A0A40A16AE06A41EA00110A439A6224
:1027E800226B013AC2F30802616B0139490289B2CE
:1027F8000A43A16B0139090401F4FE010A43E16BA4
:102808000139090601F0FE410A431A63DA6A22F027
:102818000102DA62596B4F4A0A40A16C42EAC102CE
:102828005A63DA6A22F00C02216C0A43DA62DA6A25
:1028380022F00202616C0A43DA62DA6A42F48032F8
:10284800DA62DA6A42F40032DA62DA6A42F4802240
:10285800DA62DA6A42F00102DA621A6842F08072D9
:102868001A60FEF743F90446384B1B6813F0007FE3
:1028780006D1FEF73BF9001B0228F5D9032056E0E4
:10288800002054E0002052E0304A916A106B012B7E
:102898004ED001F00303A26A93424BD1C1F3051154
:1028A800E36A994248D1C0F30802236B013B9A427C
:1028B80044D1C0F34622636B013B9A4240D1C0F336
:1028C8000642A36B013B9A423CD1C0F30660E36B1E
:1028D800013B984238D11D4B5B6BC3F3CC03A26C10
:1028E8009A4201D1002022E0184AD36A23F001035A
:1028F800D362FEF7FBF80546FEF7F8F8A842FBD0CE
:10290800124A516B134B0B40A16C43EAC10353634A
:10291800D36A43F00103D362002008E00120704726
:10292800012004E0012002E0012000E0002038BD81
:102938000120FCE70120FAE70120F8E70120F6E78B
:102948000120F4E70120F2E70120F0E700440258F3
:102958000CFCFFFF0700FFFF744B1B6903F03803F3
:10296800102B00F0DE80182B10D00BB17048704788
:102978006E4B1B6813F0200F00F0D5806B4B186866
:10298800C0F3C1006B4B23FA00F0704710B4674ADC
:10299800916A01F00301946AC4F30510D36A03F045
:1029A800010C536BC3F3CC030CFB03F307EE903A13
:1029B800F8EE677A14F47C7F00F09380012965D0E3
:1029C800022900F09180E1B107EE100AF8EE476A9B
:1029D8009FED596A86EE267A544B1B6BC3F30803A6
:1029E80006EE903AF8EE666A9FED546A67EE867ACC
:1029F80076EEA77AF7EE006A77EEA67A27EE277AC0
:102A080060E0136813F0200F23D011461268C2F358
:102A1800C102484BD34007EE103AF8EE476A07EE7A
:102A2800100AB8EE476A86EE867A0B6BC3F3080382
:102A380006EE903AF8EE666A9FED406A67EE867A8F
:102A480076EEA77AF7EE006A77EEA67A27EE277A6F
:102A580038E007EE100AF8EE476A9FED396A86EE0D
:102A6800267A324B1B6BC3F3080306EE903AF8EE56
:102A7800666A9FED326A67EE867A76EEA77AF7EE97
:102A8800006A77EEA67A27EE277A1BE007EE100A8F
:102A9800F8EE476A9FED286A86EE267A234B1B6B71
:102AA800C3F3080306EE903AF8EE666A9FED236AD0
:102AB80067EE867A76EEA77AF7EE006A77EEA67A60
:102AC80027EE277A194B1B6BC3F34623013307EE16
:102AD800903AF8EE677AC7EE276AFCEEE67A17EEC8
:102AE800900A5DF8044B704707EE100AF8EE476A43
:102AF8009FED146A86EE267A0C4B1B6BC3F3080312
:102B080006EE903AF8EE666A9FED0C6A67EE867AF2
:102B180076EEA77AF7EE006A77EEA67A27EE277A9E
:102B2800D0E7094870470348704700BF004402587F
:102B380000093D000090D0030024744A00000039C9
:102B48000024744C20BCBE4B40787D01002800F066
:102B5800328170B50D4604469B4B1B6803F00F038A
:102B68008B420BD2984A136823F00F030B43136070
:102B7800136803F00F038B4240F01F81236813F0A2
:102B8800040F0CD02269914B9B6903F070039A42A1
:102B980005D98E498B6923F070031A438A6123682B
:102BA80013F0080F0CD06269884BDB6903F07003DF
:102BB8009A4205D98549CB6923F070031A43CA6143
:102BC800236813F0100F0CD0A269804BDB6903F463
:102BD800E0639A4205D97D49CB6923F4E0631A433F
:102BE800CA61236813F0200F0CD0E269774B1B6A87
:102BF80003F070039A4205D974490B6A23F07003F5
:102C08001A430A62236813F0020F0CD0E2686F4B74
:102C18009B6903F00F039A4205D96C498B6923F02D
:102C28000F031A438A61236813F0010F41D0674AE2
:102C3800936923F47063A1680B4393616368022B63
:102C48000AD0032B27D0012B2CD0604A126812F02F
:102C5800040F06D10120ADE0126812F4003F00F025
:102C6800AE805A490A6922F0070213430B61FDF747
:102C78003DFF0646554B1B6903F038036268B3EB0A
:102C8800C20F16D0FDF732FF801B41F288339842FD
:102C9800F0D903208EE04D4A126812F0007FE0D18F
:102CA800012087E0494A126812F4807FD9D10120B7
:102CB80080E0236813F0020F0CD0E268434B9B6955
:102CC80003F00F039A4205D240498B6923F00F03A2
:102CD8001A438A613C4B1B6803F00F03AB420AD9C5
:102CE800394A136823F00F032B431360136803F06A
:102CF8000F03AB4265D1236813F0040F0CD022698F
:102D0800324B9B6903F070039A4205D22F498B69B5
:102D180023F070031A438A61236813F0080F0CD05C
:102D280062692A4BDB6903F070039A4205D227498E
:102D3800CB6923F070031A43CA61236813F0100F9C
:102D48000CD0A269214BDB6903F4E0639A4205D2F7
:102D58001E49CB6923F4E0631A43CA61236813F060
:102D6800200F0CD0E269194B1B6A03F070039A42DA
:102D780005D216490B6A23F070031A430A62FFF75B
:102D8800EBFD12498B69C3F30323114AD35C03F0AB
:102D98001F03D8408B6903F00F03D35C03F01F03B4
:102DA80020FA03F30B4A13600B4B18600B4B18689F
:102DB800FDF73AFE70BD012070470120FAE70120B7
:102DC800F8E70120F6E700BF00200052004402584F
:102DD800785B000804000024000000240C00002494
:102DE80008B5FFF7B9FD0B4A9369C3F303230A49F2
:102DF800CB5C03F01F0320FA03F3926902F00F0281
:102E0800885C00F01F0023FA00F0044A1060044AAE
:102E1800136008BD00440258785B000804000024D1
:102E28000000002408B5FFF7DBFF054BDB69C3F39F
:102E38000213044AD35C03F01F03D84008BD00BF47
:102E480000440258785B000808B5FFF7C9FF054B36
:102E5800DB69C3F30223044AD35C03F01F03D840A1
:102E680008BD00BF00440258785B0008404B9B6ACD
:102E780003F00303032B79D070B505460E463C4A90
:102E8800136823F080631360FDF730FE0446384B67
:102E98001B6813F0006F06D0FDF728FE031B022BFA
:102EA800F5D9032070BD324B9A6A22F47C32296826
:102EB80042EA01329A626A68013AC2F30802A968D2
:102EC8000139490289B20A43E9680139090401F460
:102ED800FE010A4329690139090601F0FE410A4346
:102EE8009A63DA6A22F0C00269690A43DA62DA6A26
:102EF80022F02002A9690A43DA62DA6A22F0100293
:102F0800DA62D96B1B4A0A40E96942EAC102DA630C
:102F1800DA6A42F01002DA62C6B91A46DB6A43F48A
:102F28000023D362124A136843F080631360FDF7ED
:102F3800DDFD04460E4B1B6813F0006F14D1FDF73E
:102F4800D5FD001B0228F5D90320ABE7012E05D0DB
:102F5800074AD36A43F40013D362E3E7044AD36A07
:102F680043F48013D362DDE700209BE7012070471C
:102F7800004402580700FFFF404B9B6A03F003031D
:102F8800032B79D070B505460E463C4A136823F0EA
:102F980080531360FDF7AAFD0446384B1B6813F0F5
:102FA800005F06D0FDF7A2FD031B022BF5D9032015
:102FB80070BD324B9A6A22F07C72296842EA01524B
:102FC8009A626A68013AC2F30802A968013949029B
:102FD80089B20A43E9680139090401F4FE010A4388
:102FE80029690139090601F0FE410A431A64DA6ABF
:102FF80022F4406269690A43DA62DA6A22F40072EA
:10300800A9690A43DA62DA6A22F48072DA62596CD0
:103018001B4A0A40E96942EAC1025A64DA6A42F480
:103028008072DA62C6B91A46DB6A43F48003D36257
:10303800124A136843F080531360FDF757FD0446A6
:103048000E4B1B6813F0005F14D1FDF74FFD001BFA
:103058000228F5D90320ABE7012E05D0074AD36A29
:1030680043F08073D362E3E7044AD36A43F400036E
:10307800D362DDE700209BE7012070470044025837
:103088000700FFFFF8B50446036813F0006F30D05F
:10309800836EB3F5001F26D00ED8EBB1B3F5801FB1
:1030A80007D102210830FFF7E1FE054645B12E465B
:1030B80021E0012635461EE0B3F5401F09D1002561
:1030C800984A136D23F44013A16E0B431365002631
:1030D80011E0012635460EE0924AD36A43F40033E4
:1030E800D3620025ECE702212830FFF745FF0546AB
:1030F800DCE700263546236813F4807F14D0A36DDF
:10310800042B32D8DFE803F003232A080800854A95
:10311800D36A43F40033D36255BB824A136D23F05C
:103128000703A16D0B431365236813F4007F31D0A7
:10313800E36D802B4CD020D8002B43D0402B19D1E5
:10314800002104F10800FFF791FE05461AE000216E
:1031580004F10800FFF78AFE0546DDE7002104F1C7
:103168002800FFF709FF0546D6E701263546DBE7C5
:103178002E46D9E7012635460CE0C02B02D0B3F520
:10318800807F1CD15DBB674A136D23F4E073E16D4A
:103198000B431365236813F4806F46D0D4F8A83026
:1031A800B3F5800F39D01FD88BB3B3F5001F18D1F2
:1031B800002104F10800FFF759FE05461AE0012630
:1031C8003546E7E7574AD36A43F40033D362D9E771
:1031D800002104F12800FFF7CFFE0546D2E72E466E
:1031E800D8E70126354620E0B3F5C00F02D0B3F585
:1031F800000F09D1C5B94B4A936D23F46003D4F885
:10320800A8100B43936510E0012635460DE0454AAA
:10321800D36A43F40033D362ECE7002104F12800B9
:10322800FFF7AAFE0546E5E72E46236813F4006F6C
:1032380024D0D4F8AC30B3F1007F42D00ED8002BA4
:1032480039D0B3F1807F06D1002104F10800FFF7DF
:103258000DFE054608E0012635460FE0B3F1407F34
:1032680002D0B3F1806F23D1002D31D12D4A936D57
:1032780023F0E063D4F8AC100B439365236813F094
:10328800007F2ED0E36C202B40D026D833B1102BF2
:1032980020D1244AD36A43F40033D362002D3CD1B1
:1032A800204AD36C23F03003E16C0B43D36418E05D
:1032B80001263546E2E71B4AD36A43F40033D3625A
:1032C800D2E7002104F12800FFF756FE0546CBE7B8
:1032D8002E46D3E70126354603E0302BDED0012603
:1032E8003546236813F4805F2DD0236EB3F5005F55
:1032F8004FD019D8002B46D0B3F5805F0FD10021ED
:1033080004F10800FFF7B2FD054613E0022104F1BD
:103318000800FFF7ABFD0546C0E72E46E1E70126AA
:10332800354610E000440258B3F5405F02D0B3F5CB
:10333800804F25D1002D33D1774A136D23F4E04314
:10334800216E0B431365236813F4005F38D0636E56
:10335800B3F5003F53D028D843B1B3F5803F21D10E
:10336800012104F10800FFF781FD0546002D4DD12C
:10337800694A136D23F4E023616E0B4313651FE064
:1033880001263546DFE7644AD36A43F40033D36243
:10339800D0E7002104F12800FFF7EEFD0546C9E754
:1033A8002E46D0E7012635460AE0B3F5802FDDD05A
:1033B800B3F5A02FDAD0B3F5403FD7D00126354674
:1033C800236813F4804F31D0D4F8B030B3F1005FE4
:1033D80045D020D843B1B3F1805F19D1012104F160
:1033E8000800FFF743FD0546002D3FD14A4A936D7B
:1033F80023F0E043D4F8B0100B43936516E00121A5
:1034080004F12800FFF7B8FD0546AFE72E46D7E7D9
:10341800012635460AE0B3F1804FE5D0B3F1A04F5D
:10342800E2D0B3F1405FDFD001263546236813F4BC
:10343800004F09D0236FB3F1805F19D0B3F1005F5B
:1034480024D0D3B101263546236813F0807F33D0CA
:10345800A36C032B5BD8DFE803F027225327012155
:1034680004F12800FFF788FD0546BDE72E46DDE795
:10347800294AD36A43F40033D36275B9264A136DD7
:1034880023F04053216F0B431365DDE7012104F15D
:103498000800FFF7EBFC0546EFE72E46D4E71E4A87
:1034A800D36A43F40033D362A5BB1B4AD36C23F021
:1034B8000303A16C0B43D364236813F4800F2DD14D
:1034C800236813F0010F00F0A580E36F282B00F2AA
:1034D8009F80DFE803F08D9D9D9D9D9D9D9D879D0F
:1034E8009D9D9D9D9D9D969D9D9D9D9D9D9D8D9D1B
:1034F8009D9D9D9D9D9D8D9D9D9D9D9D9D9D8D00B1
:10350800022104F10800FFF7B1FC0546CCE70126CB
:103518003546D1E72E46CFE700440258914A136852
:1035280043F480731360FDF7E1FA07468D4B1B687F
:1035380013F4807F05D1FDF7D9FAC01B6428F5D9AB
:103548000325002D4AD1884B1B6FD4F8B420534073
:1035580013F4407F0CD0844B1A6F22F44072196F19
:1035680041F480311967196F21F4803119671A679E
:10357800D4F8B430B3F5807F15D08DBBD4F8B4300F
:1035880003F44072B2F5407F1ED0774A136923F4E2
:103598007C53136174490B6FD4F8B420C2F30B0247
:1035A80013430B678CE7FDF7A1FA07466E4B1B6FB9
:1035B80013F0020FE1D1FDF799FAC01B41F28833ED
:1035C8009842F3D90325D8E76748026922F47C5268
:1035D800664901EA131313430361DBE72E466FE7DD
:1035E8002E466DE7012104F10800FFF73FFC054670
:1035F800E5B95D4A536D23F03803E16F0B4353651A
:1036080008E0012104F12800FFF7B6FC0546EFE7C2
:1036180001263546236813F0020F17D0A36F052B38
:1036280028D8DFE803F00B05200B0B0B2E46F1E73B
:10363800012104F10800FFF719FC0546EDB94A4AD3
:10364800536D23F00703A16F0B435365236813F0F1
:10365800040F23D0D4F89430052B45D8DFE803F0C5
:10366800150F3D151515012104F12800FFF784FCFD
:103678000546E3E701263546E8E72E46E6E7012159
:1036880004F10800FFF7F2FB054685BB364A936D47
:1036980023F00703D4F894100B439365236813F0C1
:1036A800200F34D0D4F89030B3F1005F4ED023D837
:1036B80043B1B3F1805F1CD1002104F10800FFF78A
:1036C800D5FB0546002D48D1274A536D23F0E0432A
:1036D800D4F890100B43536519E0012104F1280038
:1036E800FFF74AFC0546D0E701263546D6E72E46C1
:1036F800D4E7012635460AE0B3F1804FE2D0B3F1B2
:10370800A04FDFD0B3F1405FDCD0012635462368F7
:1037180013F0400F37D0D4F89C30B3F5006F53D076
:1037280026D843B1B3F5806F19D1002104F1080000
:10373800FFF79CFB0546002D4DD10B4A936D23F4F2
:10374800E053D4F89C100B4393651CE0022104F16C
:103758002800FFF711FC0546B4E72E46D7E70126F7
:10376800354610E00048025800440258CFFFFF00D9
:10377800B3F5805FDFD0B3F5A05FDCD0B3F5406F61
:10378800D9D001263546236813F0800F33D0D4F8FA
:10379800A030B3F5804F00F0A38021D843B1B3F532
:1037A800005F1AD1002104F10800FFF75FFB05460E
:1037B800002D40F09C80814A936D23F46043D4F837
:1037C800A0100B43936516E0022104F12800FFF7CF
:1037D800D3FB0546AFE72E46D5E7012635460AE076
:1037E800B3F5004FE4D0B3F5204FE1D0B3F5C04FA7
:1037F800DED001263546236813F0080F0CD0D4F824
:103808008430B3F5805F74D06C4A536D23F4405311
:10381800D4F884100B435365236813F0100F0CD0B1
:10382800D4F89830B3F5807F6CD0644A936D23F454
:103838004073D4F898100B439365236813F4002F52
:103848000BD0D4F8A430B3F5803F74D0B3F5003F63
:1038580067D0002B5FD001263546236813F4802FEC
:103868000CD0D4F88830B3F5001F7CD0B3F5401FD6
:103878006FD0B3F5801F67D001263546236813F44F
:10388800803F08D0236D002B76D0B3F5803F00F041
:10389800818001263546236813F0005F40F083805D
:1038A800236813F4003F00F08E80D4F88030B3F51D
:1038B800807F00F0EC8040F28380B3F5007F03D076
:1038C800B3F5407F40F0E180002D40F0E6803B4AB0
:1038D800536D23F44073D4F880100B43536572E0A2
:1038E800022104F12800FFF747FB054660E72E4652
:1038F80081E7022104F12800FFF73EFB002883D06E
:10390800012681E7022104F12800FFF735FB002892
:103918008BD0012689E7002104F10800FFF7A6FAF9
:1039280005467DB9254A936D23F44033D4F8A41095
:103938000B43936591E7022104F12800FFF71CFB74
:103948000546EEE72E4688E71C4AD36A43F400335F
:10395800D3627DB9194A536D23F44013D4F8881003
:103968000B4353658AE7012104F12800FFF704FBA4
:103978000546EEE72E4681E7104AD36A43F4003342
:10398800D36275B90D4AD36C23F48033216D0B4390
:10399800D36480E7022104F10800FFF767FA0546BF
:1039A800EFE72E4677E7022104F12800FFF7E4FA53
:1039B80000283FF475AF012672E700BF00440258A3
:1039C800002B81D00126236813F4801F06D04F4AAC
:1039D800136D23F00043616F0B431365236813F0E5
:1039E800805F07D0494A136923F48043D4F8B8109C
:1039F8000B431361236813F4001F06D0434A136D69
:103A080023F08073E16E0B431365236813F0804F36
:103A180009D03E4B1A6922F400421A611A69D4F897
:103A2800BC100A431A612368002B06DA374AD36CA4
:103A380023F04053616D0B43D364236813F4000FE4
:103A480007D0324A536D23F44003D4F88C100B434B
:103A58005365636813F0010F21D1636813F0020FF7
:103A680026D1636813F0040F2BD1636813F0080F95
:103A780030D1636813F0100F35D1636813F0200F4D
:103A88003AD106B101263046F8BD01269BE71F4A08
:103A9800D36A43F40033D36216E72E4693E7002136
:103AA80004F10800FFF7E2F90028D6D00646D4E76B
:103AB800012104F10800FFF7D9F90028D1D0064602
:103AC800CFE7022104F10800FFF7D0F90028CCD095
:103AD8000646CAE7002104F12800FFF74DFA00283E
:103AE800C7D00646C5E7012104F12800FFF744FACC
:103AF8000028C2D00646C0E7022104F12800FFF7DB
:103B08003BFA0028BDD00646BBE700BF0044025878
:103B180008B5FFF765F9054B1B6AC3F30213044A9E
:103B2800D35C03F01F03D84008BD00BF004402580F
:103B3800785B000810B5774A916A946AC4F3053E29
:103B4800D36AC3F3001CD36BC3F3CC030CFB03F39E
:103B580014F47C3F00F0D88001F0030107EE903A9E
:103B6800F8EE677A012965D0022900F0B080E1B14A
:103B780007EE10EAB8EE477A9FED676AC6EE076A65
:103B8800644B9B6BC3F3080307EE103AB8EE477A11
:103B98009FED626A67EE867A77EE277AB7EE007A4B
:103BA80077EE877A66EEA76A60E0136813F0200F55
:103BB80023D011461268C2F3C102594BD34007EE15
:103BC800103AB8EE477A06EE90EAB8EE666AC7EEA3
:103BD800066A8B6BC3F3080307EE103AB8EE477A10
:103BE8009FED4E6A67EE867A77EE277AB7EE007A0F
:103BF80077EE877A66EEA76A38E007EE10EAB8EE45
:103C0800477A9FED486AC6EE076A424B9B6BC3F33F
:103C1800080307EE103AB8EE477A9FED406A67EE60
:103C2800867A77EE277AB7EE007A77EE877A66EEAD
:103C3800A76A1BE007EE10EAB8EE477A9FED366AEE
:103C4800C6EE076A334B9B6BC3F3080307EE103AC3
:103C5800B8EE477A9FED316A67EE867A77EE277A73
:103C6800B7EE007A77EE877A66EEA76A294A936BF1
:103C7800C3F3462307EE103AB8EE477AB7EE006A68
:103C880037EE067AC6EE877AFCEEE77AC0ED007A60
:103C9800936BC3F3064307EE103AB8EE477A37EE54
:103CA800067AC6EE877AFCEEE77AC0ED017A936B66
:103CB800C3F3066307EE903AF8EE677A77EE867AF2
:103CC80086EEA77ABCEEC77A80ED027A10BD07EEC1
:103CD80010EAB8EE477A9FED146AC6EE076A0D4BF4
:103CE8009B6BC3F3080307EE103AB8EE477A9FEDD3
:103CF8000B6A67EE867A77EE277AB7EE007A77EE68
:103D0800877A66EEA76AB1E70023036043608360A1
:103D1800DCE700BF004402580024744A0000003960
:103D28000090D0030024744C20BCBE4B10B5774AD9
:103D3800916A946AC4F3055ED36AC3F3002C536C8A
:103D4800C3F3CC030CFB03F314F07C7F00F0D880A2
:103D580001F0030107EE903AF8EE677A012965D081
:103D6800022900F0B080E1B107EE10EAB8EE477A18
:103D78009FED676AC6EE076A644B1B6CC3F30803C2
:103D880007EE103AB8EE477A9FED626A67EE867AD8
:103D980077EE277AB7EE007A77EE877A66EEA76A2B
:103DA80060E0136813F0200F23D011461268C2F3A5
:103DB800C102594BD34007EE103AB8EE477A06EEE7
:103DC80090EAB8EE666AC7EE066A0B6CC3F308039E
:103DD80007EE103AB8EE477A9FED4E6A67EE867A9C
:103DE80077EE277AB7EE007A77EE877A66EEA76ADB
:103DF80038E007EE10EAB8EE477A9FED486AC6EE5B
:103E0800076A424B1B6CC3F3080307EE103AB8EE7F
:103E1800477A9FED406A67EE867A77EE277AB7EEA3
:103E2800007A77EE877A66EEA76A1BE007EE10EA5B
:103E3800B8EE477A9FED366AC6EE076A334B1B6CBD
:103E4800C3F3080307EE103AB8EE477A9FED316ADC
:103E580067EE867A77EE277AB7EE007A77EE877A7A
:103E680066EEA76A294A136CC3F3462307EE103A95
:103E7800B8EE477AB7EE006A37EE067AC6EE877A6A
:103E8800FCEEE77AC0ED007A136CC3F3064307EE45
:103E9800103AB8EE477A37EE067AC6EE877AFCEE25
:103EA800E77AC0ED017A136CC3F3066307EE903A24
:103EB800F8EE677A77EE867A86EEA77ABCEEC77A4E
:103EC80080ED027A10BD07EE10EAB8EE477A9FED52
:103ED800146AC6EE076A0D4B1B6CC3F3080307EEA2
:103EE800103AB8EE477A9FED0B6A67EE867A77EE5E
:103EF800277AB7EE007A77EE877A66EEA76AB1E797
:103F08000023036043608360DCE700BF004402587D
:103F18000024744A000000390090D0030024744C37
:103F280020BCBE4B10B402685369916941F0080186
:103F3800916101688A6942F010028A6101680A6821
:103F480022F001020A6001680C69294A22400A61CC
:103F580001688A6822F440428A6090F88120D2B2CF
:103F6800042A0DD013F0200F0AD0D0F8842042F094
:103F78008002C0F8842001688A6942F020028A61C0
:103F880090F88120D2B2032A0DD013F0400F0AD046
:103F9800D0F8842042F00402C0F8842001688A69BD
:103FA80042F040028A6113F4007F0AD0D0F88420DE
:103FB80042F00102C0F8842001688A6942F4007264
:103FC8008A6113F4807F0AD0D0F8843043F0080364
:103FD800C0F884300268936943F4807393610023C6
:103FE800A0F86230A0F86A305DF8044B704700BF53
:103FF80090FCFFFFC36B5B09C0680830C00803FB77
:10400800000070472DE9F04107460E4615461C464C
:10401800DDF8188000E0B4B13B685B6936EA030359
:104028000CBF01230023AB420AD1FCF75FFDA0EBD4
:104038000800A042EFD3B4F1FF3FECD0032000E02A
:104048000020BDE8F0810320FBE70000002800F015
:10405800B78070B504460023836205685C4B5D4EEB
:104068009D4218BFB54214BF0126002607D0A3F50C
:1040780074439D4203D0C3680F2B00F2A3802046EF
:10408800FFF7B8FF2EB1544B9D4202D0082800F22A
:104098009B804F4A4F4B9D4218BF954203D003F572
:1040A80080639D4202D1102800F2908094F88130FC
:1040B800F3B1022384F881302268136823F00103E6
:1040C800136021688A6802F4F812A369B3F1806F5B
:1040D80014D0636813F4800F23D0E368062B20D92B
:1040E80021680B6823F48073206D03430B601DE087
:1040F80084F880302046FCF707FBDAE76368B3F5FD
:10410800800F06D0002BE4D1A36BB3F1805FE0D120
:1041180002E0A06B0028F5D10B6843F480530B60D4
:10412800D7E721680B6823F480730B60E369A16A01
:104138000B431343E26B1343E16822680B4393601C
:10414800636B626A1343A26B1343A2691343226928
:10415800134362691343226A134362681343E26C90
:104168001343A2681343A26C1343A16D22680B4347
:10417800D36063686BB92268936823F4C05343F42F
:10418800006393602268936823F4C06343F48063F8
:1041980093602268136D23F001031365636813F4B9
:1041A800800F06D02268D36823F00043616D0B436B
:1041B800D3600020C4F88400012384F8813070BDE6
:1041C800012070470120FAE70120F8E70120F6E70F
:1041D8000030014000380040003C00402DE9F04725
:1041E80082B01D46D0F8008090F88030012B00F096
:1041F8005A8104468A469146012380F88030FCF7AC
:1042080075FC074694F88160F6B2012E39D1B9F1F0
:10421800000F18BFBAF1000F3BD0032384F8813098
:104228000023C4F88430C4F85CA0A4F86090A4F813
:1042380062906366A4F86830A4F86A3063672367FD
:10424800A368B3F5C02F28D02268D36823F4C0230D
:1042580043F40033D36023685968944A0A4049EA12
:1042680002025A602268136843F00103136063680E
:10427800B3F5800F17D0E3680F2B23D8072B59D835
:10428800B8E0002384F880300226304602B0BDE84A
:10429800F087002384F88030F7E72268136843F436
:1042A80000631360D7E72268136843F40073136050
:1042B800E1E7FCF71BFCC01BA84202D3B5F1FF3FA6
:1042C80019D1C5B1B4F862309BB2002B00F0CD8093
:1042D80023685A6912F0020FEBD0E26D12681A6275
:1042E800E36D0433E365B4F8622092B2013A92B206
:1042F800A4F86220E6E72046FFF714FE002384F8BE
:104308008030D4F8843043F48073C4F884300123B7
:1043180084F881300326B8E7E36D1B88A8F82030BD
:10432800E36D0233E365B4F862309BB2013B9BB2A4
:10433800A4F86230B4F862309BB2002B00F095808C
:104348002268536913F0020F15D0B4F862309BB29B
:10435800012BE1D9E36B002BDED0E36D1B68136200
:10436800E36D0433E365B4F862309BB2023B9BB261
:10437800A4F86230DEE7FCF7B9FBC01BA84202D301
:10438800B5F1FF3F01D1002DD4D12046FFF7CAFD7A
:10439800002384F88030D4F8843043F48073C4F860
:1043A8008430012384F8813003266EE7B4F8623044
:1043B8009BB2012B10D9E36B73B1E36D1B88A8F88E
:1043C8002030E36D0233E365B4F862309BB2023B00
:1043D8009BB2A4F862300DE0E36D1B7882F82030C0
:1043E800E36D0133E365B4F862309BB2013B9BB2E5
:1043F800A4F86230B4F862309BB2002B35D0226842
:10440800536913F0020F15D0B4F862309BB2032B36
:10441800CCD9E36B402BC9D9E36D1B681362E36DFC
:104428000433E365B4F862309BB2043B9BB2A4F852
:104438006230DFE7FCF75AFBC01BA84202D3B5F194
:10444800FF3F01D1002DD5D12046FFF76BFD00239A
:1044580084F88030D4F8843043F48073C4F884300E
:10446800012384F8813003260FE700972B460022AA
:1044780008212046FFF7C6FD28B1D4F8843043F060
:104488002003C4F884302046FFF74CFD002384F84D
:104498008030012384F88130D4F88430002B7FF4F5
:1044A800F4AE0026F1E60226EFE600BF0000FFFFAB
:1044B80070B590F88030012B00F0D4800446164681
:1044C800012380F8803090F88150EDB29D427DD173
:1044D800002A18BF00297FD0032380F881300023E9
:1044E800C0F88430C165A0F86020A0F86220436657
:1044F80043670367A0F86830A0F86A308368B3F5AB
:10450800C02F6DD00268D36823F4C02343F400336E
:10451800D360E3680F2B04D9A26F9269B2F5804F7C
:1045280064D1072B07D9A26F9269B2F5005F18BF53
:10453800B2F5804F5AD1072B6CD8A36F9A69B2F5A0
:10454800005F57D09B69B3F5804F5BD0A36F464A95
:104558001A64A36F454ADA63A36F454ADA64A36F06
:1045680000221A652268936823F400439360226846
:10457800B4F862309BB22032E16DA06FFCF726FFE1
:104588000146002855D1A36FDB69B3F5807F5DD064
:1045980023685868374A024032435A602268936851
:1045A80043F4004393602268136943F4487313612A
:1045B8002268136843F0010313606368B3F5800F42
:1045C8004AD0002384F880300D4603E0002380F8A9
:1045D80080300225284670BD002380F88030F9E736
:1045E8000268136843F40063136092E7002384F8B9
:1045F8008030EFE7B4F8622092B201325208A4F892
:1046080062209FE7B4F862309BB203339B08A4F89A
:1046180062309BE70F2B99D8A36F9B69B3F5804F46
:1046280094D1B4F862309BB201335B08A4F86230CD
:104638008CE7D4F8843043F01003C4F884300023A6
:1046480084F88030012384F88130C3E722685068F9
:10465800084B03405360A1E72268136843F40073D2
:104668001360AEE70225B5E7AF46000881460008AB
:10467800BB4600080000FFFF08B5806B90F881304A
:10468800DBB2072B09D0836FDB69B3F5807F05D0D8
:104698000268136943F00803136108BD00F052FE75
:1046A800FBE77047704708B5806B00F057FE08BD00
:1046B800704710B5846BFDF7A9FC022800D110BD26
:1046C8002046FFF72FFCD4F8843043F01003C4F8D9
:1046D8008430012384F881302046FFF7E9FFEEE7B4
:1046E80008B5806B0023A0F86A30A0F86230012377
:1046F80080F88130FFF7DCFF08BD70472DE9F843EB
:10470800044606683269736902EA0305D6F8089018
:1047180090F88170FFB213F4006F02D012F0080F06
:104728003FD105F06403042B42D0002305F045086F
:10473800B8F1010F44D005F02602022A45D0002B1B
:1047480046D115F0080F79D02268936943F0080321
:1047580093612268936943F0100393612268936917
:1047680043F4006393612268136923F0080313611B
:1047780023689B6813F4404F3BD02046FFF7D2FBD9
:10478800012384F88130D4F88430002B4AD1052FD6
:104798004CD0042F4ED0032F1AD1204600F0D2FD62
:1047A80016E0B36943F40063B361FFF7A6FF0FE0B7
:1047B800636F20469847236F204698470123B5E743
:1047C800236F204698474346B5E7636F20469847CE
:1047D800BDE8F883072B1CD9636E328E1A80636E8E
:1047E80002336366B4F86A309BB2013B9BB2A4F80B
:1047F8006A30B4F86A309BB2002BBED0E3680F2B46
:10480800E8D92268636E126B1A60636E04336366BC
:10481800E8E72268636E92F830201A70636E0133FD
:104828006366DFE72046FFF743FFD1E72046FFF73F
:1048380039FFCDE72046FFF734FFC9E715F4587F65
:10484800C6D015F0400F0AD0D4F8843043F00403E2
:10485800C4F884302268936943F04003936115F4E7
:10486800007F0AD0D4F8843043F00103C4F88430C0
:104878002268936943F40073936115F4807F0AD02A
:10488800D4F8843043F00803C4F88430226893696C
:1048980043F48073936115F0200F0AD0D4F8843064
:1048A80043F08003C4F884302268936943F02003FE
:1048B8009361D4F88430002B8AD02268136823F0DF
:1048C80001031360226811691A4B0B40136109F444
:1048D8004049B9F5404F25D12268936823F44043F5
:1048E8009360E36F5BB1144A1A65E06FFCF7BAFE98
:1048F80028B1D4F8843043F04003C4F88430A36F5F
:10490800002B3FF465AF0C4A1A65A06FFCF7AAFEAE
:1049180000283FF45DAFD4F8843043F04003C4F876
:10492800843055E7012384F881302046FFF7C0FE24
:104938004EE700BF94FCFFFFE946000890F88100AD
:1049480070470000026852E8003F23F4907342E881
:1049580000310029F6D1026802F1080353E8001F6C
:104968000D4B0B40083242E800310029F3D1C36EE9
:10497800012B06D02023C0F88C300023C366436780
:104988007047026852E8003F23F0100342E8003104
:104998000029F6D1EEE700BFFEFFFFEF70B586B045
:1049A8000446016883680269134342691343C26974
:1049B80013430868884A024013430B60226853680F
:1049C80023F44053E1680B435360A1692268834B89
:1049D8009A4201D0236A19439068814B03400B43E4
:1049E80093602268D36A23F00F03616A0B43D36292
:1049F80022687C4B9A4221D07B4B9A4200F08C80F3
:104A08007A4B9A4200F0A280794B9A4200F0B58026
:104A1800784B9A4200F0C880774B9A4200F0F480B5
:104A2800764B9A4200F01981754B9A4200F02C811E
:104A38006A4B9A4200F03F81802333E0714B5B6DF3
:104A480003F03803282B65D8DFE813F02900640049
:104A58006400640064006400640064004D01640044
:104A68006400640064006400640064002B00640057
:104A78006400640064006400640064005E00640014
:104A88006400640064006400640064006000640002
:104A98006400640064006400640064006200012330
:104AA80000E008234D498A4200F02F81E069B0F503
:104AB800004F00F0AF81202B00F20782202B00F27C
:104AC8005182DFE813F01E0224024F024F02270230
:104AD8004F024F024F022C024F024F024F024F0269
:104AE8004F024F024F0231024F024F024F024F0254
:104AF8004F024F024F024F024F024F024F024F0226
:104B08004F024F024F023D021023CBE72023C9E793
:104B18004023C7E78023C5E73A4B5B6D03F00703E3
:104B2800052B11D8DFE813F00600E10008000A00A1
:104B38000C000E000023B5E70823B3E71023B1E704
:104B48002023AFE74023ADE78023ABE72D4B5B6D18
:104B580003F00703052B0ED8DFE803F003C90507A8
:104B6800090B00239EE708239CE710239AE72023DC
:104B780098E7402396E7802394E7224B5B6D03F088
:104B88000703052B0ED8DFE803F003B40507090B6C
:104B9800002387E7082385E7102383E7202381E79D
:104BA80040237FE780237DE7164B5B6D03F0070307
:104BB800052B0ED8DFE803F0039F0507090B002338
:104BC80070E708236EE710236CE720236AE7402389
:104BD80068E7802366E700BFF369FFCF000C005841
:104BE800FFF4FF110010014000440040004800405D
:104BF800004C004000500040001401400078004084
:104C0800007C0040004402587D4B5B6D03F0380384
:104C1800282B20D8DFE803F0151F1F1F1F1F1F1F99
:104C2800711F1F1F1F1F1F1F171F1F1F1F1F1F1F42
:104C3800191F1F1F1F1F1F1F1B1F1F1F1F1F1F1F86
:104C48001D0001232EE708232CE710232AE7202341
:104C580028E7402326E7802324E7694B5B6D03F0B0
:104C68000703052B0ED8DFE803F0034A0507090BF5
:104C7800002317E7082315E7102313E7202311E77C
:104C880040230FE780230DE75D4B5B6D03F00703BF
:104C9800052B0ED8DFE803F003350507090B0023C1
:104CA80000E70823FEE61023FCE62023FAE640236B
:104CB800F8E68023F6E603F50E339B6D03F0070351
:104CC800052B0ED8DFE803F0031F0507090B0223A5
:104CD800E8E60823E6E61023E4E62023E2E640239C
:104CE800E0E68023DEE60423DCE60423DAE6042398
:104CF800D8E60423D6E60423D4E60423D2E6042324
:104D0800D0E60423CEE60423CCE6202B27D8022BBA
:104D1800C0F01A81023B1E2B00F21881DFE813F065
:104D28005000160156001601160116015B00160107
:104D3800160116011601160116011601600016016A
:104D480016011601160116011601160116011601A3
:104D58001601160116011601160116016C00402BEA
:104D68002CD14FF40040626A264B33F81220B0FB76
:104D7800F2F3656805EB4501994200F2E980B3EB6F
:104D8800053F00F2E780002633463146FBF780FAFC
:104D9800090241EA106100026B08C0182A4633462E
:104DA80041F10001FBF774FAA0F54072164B9A42E4
:104DB80000F2D2802368D8603046D4E00120D2E0E7
:104DC800FEF7A6FE0028CED10020CCE003A8FEF70F
:104DD800B1FE0498F6E76846FEF7A8FF0198F1E7E8
:104DE800074B1B6813F0200F08D0054B1B68C3F353
:104DF800C1030648D840E5E70548B4E70348B2E7E9
:104E080000440258905B0008FFFC0F000090D0039C
:104E180000093D00202B15D8202B00F29F80DFE8E9
:104E280003F031379D9D3A9D9D9D3F9D9D9D9D9D84
:104E38009D9D449D9D9D9D9D9D9D9D9D9D9D9D9DF3
:104E48009D9D5000402B1BD1626A4D4B33F81230A8
:104E5800B0FBF3F06268530803EB4000B0FBF2F0DC
:104E6800A0F110024FF6EF739A4279D883B223F07B
:104E78000F03C0F3420018432368D860002072E093
:104E8800012070E0FDF7CEFF0028DDD100206AE0A8
:104E9800FDF7DAFFF8E703A8FEF74CFE0498F3E7FE
:104EA8006846FEF743FF0198EEE7364B1B6813F0A0
:104EB800200F08D0334B1B68C3F3C1033248D840D6
:104EC800E2E73248C0E73048BEE7402B17D14FF43D
:104ED8000040626A2A4B33F81230B0FBF3F0636883
:104EE80000EB5300B0FBF3F0A0F110024FF6EF73A4
:104EF8009A4242D8236880B2D860002033E001206B
:104F080031E0FDF78FFF0028E3D100202BE0FDF70B
:104F18009BFFF8E703A8FEF70DFE0498F3E7684641
:104F2800FEF704FF0198EEE7164B1B6813F0200FFD
:104F380008D0144B1B68C3F3C1031348D840E2E7F9
:104F48001248C6E71048C4E701200CE001200AE037
:104F5800012008E0012006E0012004E0012002E031
:104F6800012000E001200123A4F86A30A4F8683089
:104F780000236367A36706B070BD0120F3E700BF95
:104F8800905B0008004402580090D00300093D00DF
:104F9800836A13F0010F06D00268536823F40033C4
:104FA800C16A0B435360836A13F0020F06D002688C
:104FB800536823F48033016B0B435360836A13F007
:104FC800040F06D00268536823F48023416B0B4317
:104FD8005360836A13F0080F06D00268536823F4FD
:104FE8000043816B0B435360836A13F0100F06D0A4
:104FF8000268936823F48053C16B0B439360836A00
:1050080013F0200F06D00268936823F40053016C54
:105018000B439360836A13F0400F0AD00268536809
:1050280023F48013416C0B435360436CB3F5801F2A
:105038000BD0836A13F0800F06D00268536823F4FC
:105048000023C16C0B43536070470268536823F414
:10505800C003816C0B435360EBE72DE9F843054629
:105068000F4616469946DDF820802C68E46937EA31
:1050780004030CBF4FF0010C4FF0000CB44532D1C3
:10508800B8F1FF3FF1D0FBF731FDA0EB0900404537
:105098002CD8B8F1000F2BD02B681A6812F0040F27
:1050A800E3D0DA6912F0080F11D1DA6912F4006F4F
:1050B800DBD04FF400621A622846FFF743FC202336
:1050C800C5F89030002385F8843003200CE00824CC
:1050D8001C622846FFF736FCC5F89040002385F887
:1050E8008430012000E00020BDE8F8830320FBE7BE
:1050F8000320F9E730B583B004460023C0F89030A8
:10510800FBF7F4FC05462268126812F0080F10D16C
:1051180023681B6813F0040F28D12023C4F88830B3
:10512800C4F88C300020E066206784F8840003B05F
:1051380030BD6FF07E430093034600224FF4001108
:105148002046FFF78AFF0028E2D0226852E8003F95
:1051580023F0800342E800310029F6D12023C4F867
:105168008830002384F884300320E0E76FF07E4322
:1051780000932B4600224FF480012046FFF76DFF75
:105188000028CAD0226852E8003F23F4907342E80E
:1051980000310029F6D1226802F1080353E8003FE4
:1051A80023F00103083242E800310029F3D120231B
:1051B800C4F88C30002384F884300320B7E778B330
:1051C80010B50446D0F888300BB32423C4F88830CF
:1051D8002268136823F0010313602046FFF7DEFB03
:1051E800012813D0A36ABBB92268536823F49043FB
:1051F80053602268936823F02A0393602268136837
:1052080043F0010313602046FFF774FF10BD80F8D8
:105218008430FBF7EBFAD8E72046FFF7B9FEE3E75F
:1052280001207047436E2BB90123A0F86A30A0F81B
:105238006830704730B403689A68C2F3426299686C
:10524800490F094D6B5C1B01084C615C93FBF1F342
:10525800A0F86A30AB5C1B01A25C93FBF2F3A0F8E8
:10526800683030BC704700BFB05B0008A85B00081E
:1052780090F88430012B18D0012380F8843024233F
:10528800C0F8883003681A68196821F001011960AC
:1052980022F000520023436601680A602022C0F809
:1052A800882080F88430184670470220704738B547
:1052B80090F88430012B1DD00446012380F88430F7
:1052C8002423C0F8883003681D681A6822F0010298
:1052D8001A600268936823F0604319439160FFF7EE
:1052E800A1FF23681D602023C4F88830002084F8BB
:1052F800840038BD0220FCE738B590F88430012BD3
:105308001DD00446012380F884302423C0F8883057
:1053180003681D681A6822F001021A60026893681F
:1053280023F0606319439160FFF77CFF23681D60D9
:105338002023C4F88830002084F8840038BD022077
:10534800FCE70000034B834200D07047024B012268
:105358001A70FAE71C0100243C0200247047000080
:105368002DE9F04781468846141AA4B25F1ABFB2E5
:10537800013A95B2013B9EB233462A4600F01AF92B
:1053880000224FF480515848FCF752FF07FB04F302
:105398009B00564A82FB0312DC17C4EBA204A4B29A
:1053A800224608A95248FFF783F85148FFF7C6FA82
:1053B8000128FAD1DFF830A101224FF4805150467C
:1053C800FCF736FF494981FB073108EB6101334699
:1053D8002A4689B2484600F0EDF800224FF4805181
:1053E8005046FCF725FF224608A94148FFF760F818
:1053F8003F48FFF7A3FA0128FAD1DFF8ECA0012211
:105408004FF480515046FCF713FFB900374B83FB2C
:10541800013108EBA10133462A4689B2484600F01B
:10542800C9F800224FF480515046FCF701FF22468C
:1054380008A92F48FFF73CF82D48FFF77FFA012805
:10544800FAD1DFF8A4A001224FF480515046FCF7AE
:10545800EFFE07EB47014900244B83FB013108EBC2
:10546800A10133462A4689B2484600F0A3F8002233
:105478004FF480515046FCF7DBFE224608A91C4831
:10548800FFF716F81A48FFF759FA0128FAD1DFF89A
:1054980058A001224FF480515046FCF7C9FEFF0086
:1054A800124981FB073108EBA10133462A4689B22C
:1054B800484600F07FF800224FF480515046FCF730
:1054C800B7FE224608A90A48FEF7F2FF0848FFF788
:1054D80035FA0128FAD101224FF480510248FCF72D
:1054E800A7FEBDE8F08700BF001002586766666631
:1054F8001C01002400B583B08DF8070000224FF48A
:1055080080510B48FCF794FE4FF6FF7301220DF112
:1055180007010848FEF762FE0028F5D101224FF482
:1055280080510348FCF784FE03B05DF804FB00BF1C
:10553800001002581C01002408B5FFF7DBFF08BD66
:1055480000B583B0030A8DF804308DF805000022F9
:105558004FF480510A48FCF76BFE4FF6FF730222A6
:1055680001A90848FEF73AFE0028F6D101224FF4B7
:1055780080510348FCF75CFE03B05DF804FB00BFF4
:10558800001002581C01002438B50446084D0022BA
:105598004FF480512846FCF74BFE2046FFF7AAFF40
:1055A80001224FF480512846FCF742FE38BD00BF67
:1055B80000040258F8B507460D4616461C462A2030
:1055C800FFF7E2FF3846FFF7BBFF3046FFF7B8FFAB
:1055D8002B20FFF7D9FF2846FFF7B2FF2046FFF739
:1055E800AFFF2C20FFF7D0FFF8BD000010B582B048
:1055F800694C00224FF480612046FCF719FE012017
:10560800FBF77AFA01224FF480612046FCF710FE7E
:105618000220FBF771FA1120FFF7B6FF7820FBF79D
:105628006BFAF020FFF7B0FFC320FFF785FFF020EB
:10563800FFF7AAFF9620FFF77FFF3620FFF7A4FFAA
:105648004820FFF779FF3A20FFF79EFF0520FFF774
:1056580073FFE820FFF798FF4020FFF76DFF8220D7
:10566800FFF76AFF0720FFF767FF1820FFF764FFBF
:105678002720FFF761FF0A20FFF75EFFB620FFF73C
:105688005BFF3320FFF758FFC520FFF77DFF27207A
:10569800FFF752FFC220FFF777FFA720FFF74CFF65
:1056A800E020FFF771FFF020FFF746FF0120FFF72A
:1056B80043FF0620FFF740FF0F20FFF73DFF1220B2
:1056C800FFF73AFF1D20FFF737FF3620FFF734FFBB
:1056D8005420FFF731FF4420FFF72EFF0C20FFF77F
:1056E8002BFF1820FFF728FF1620FFF725FF1320B0
:1056F800FFF722FF1520FFF71FFFE120FFF744FF08
:10570800F020FFF719FF0120FFF716FF0520FFF72C
:1057180013FF0A20FFF710FF0B20FFF70DFF0720EC
:10572800FFF70AFF3220FFF707FF4420FFF704FFC7
:105738004420FFF701FF0C20FFF7FEFE1820FFF7BB
:10574800FBFE1720FFF7F8FE1320FFF7F5FE1620E3
:10575800FFF7F2FEF020FFF717FF3C20FFF7ECFE03
:10576800F020FFF711FF6920FFF7E6FE2920FFF779
:105778000BFF4FF4F0734FF4A07200210846FFF7B7
:1057880019FF002000904FF4F0734FF4A072014607
:10579800FFF7E6FD02B010BD000402582DE9F047FE
:1057A800089D04468E46002B4DD18A42944669D9FD
:1057B800B2FA82F252B101FA02F3C2F1200120FAE0
:1057C80001F10CFA02FC41EA030E94404FEA1C482E
:1057D800210CBEFBF8F61FFA8CF708FB16E341EA2A
:1057E800034306FB07F199420AD91CEB030306F1B0
:1057F800FF3080F01F81994240F21C81023E6344D1
:105808005B1AA4B2B3FBF8F008FB103344EA034474
:1058180000FB07F7A7420AD91CEB040400F1FF3389
:1058280080F00A81A74240F207816444023840EAC6
:105838000640E41B00261DB1D4400023C5E90043FF
:105848003146BDE8F0878B4209D9002D00F0EF8082
:105858000026C5E9000130463146BDE8F087B3FAB5
:1058680083F6002E4AD18B4202D3824200F2F9809D
:10587800841A61EB030301209E46002DE0D0C5E9A0
:10588800004EDDE702B9FFDEB2FA82F2002A40F0EC
:105898009280A1EB0C014FEA1C471FFA8CFE0126EF
:1058A800200CB1FBF7F307FB131140EA01410EFB93
:1058B80003F0884208D91CEB010103F1FF3802D23A
:1058C800884200F2CB804346091AA4B2B1FBF7F034
:1058D80007FB101144EA01440EFB00FEA64508D957
:1058E8001CEB040400F1FF3102D2A64500F2BB8094
:1058F8000846A4EB0E0440EA03409CE7C6F12007E3
:10590800B34022FA07FC4CEA030C20FA07F401FA28
:1059180006F31C43F9404FEA1C4900FA06F3B1FBB1
:10592800F9F8200C1FFA8CFE09FB181140EA014116
:1059380008FB0EF0884202FA06F20BD91CEB0101B3
:1059480008F1FF3A80F08880884240F28580A8F10B
:1059580002086144091AA4B2B1FBF9F009FB10115D
:1059680044EA014100FB0EFE8E4508D91CEB0101FB
:1059780000F1FF346CD28E456AD90238614440EA9E
:105988000840A0FB0294A1EB0E01A142C846A6461E
:1059980056D353D05DB1B3EB080261EB0E0101FAA7
:1059A80007F722FA06F3F1401F43C5E90071002604
:1059B8003146BDE8F087C2F12003D8400CFA02FC5A
:1059C80021FA03F3914001434FEA1C471FFA8CFE6A
:1059D800B3FBF7F007FB10360B0C43EA064300FB5A
:1059E8000EF69E4204FA02F408D91CEB030300F1F8
:1059F800FF382FD29E422DD9023863449B1B89B2AF
:105A0800B3FBF7F607FB163341EA034106FB0EF337
:105A18008B4208D91CEB010106F1FF3816D28B42E4
:105A280014D9023E6144C91A46EA004638E72E46B0
:105A3800284605E70646E3E61846F8E64B45A9D2A8
:105A4800B9EB020864EB0C0E0138A3E74646EAE717
:105A5800204694E74046D1E7D0467BE7023B6144C5
:105A680032E7304609E76444023842E770B50D4E24
:105A78000D4D761BB61006D0002455F8043B0134B2
:105A88009847A642F9D1094E094D761B00F064F8F3
:105A9800B61006D0002455F8043B01349847A642B6
:105AA800F9D170BD145C0008145C0008185C00088B
:105AB800145C0008830730B548D0541E002A3FD034
:105AC800CAB2034601E0013C3AD303F8012B9D0713
